:020000040800F2
:1000000000500020C5220008C51E0008CB1E0008B5
:10001000D11E0008D71E0008DD1E000800000000E9
:10002000000000000000000000000000E31E0008C7
:10003000EF1E000800000000FB1E0008071F00085C
:100040000D2300080D2300080D2300080D230008D0
:100050000D2300080D2300080D2300080D230008C0
:100060000D2300080D2300080D2300080D230008B0
:100070000D2300080D2300080D2300080D230008A0
:100080000D2300080D2300080D2300080D23000890
:100090000D2300080D2300080D2300080D23000880
:1000A0000D2300080D2300080D2300080D23000870
:1000B000151F00080D2300080D2300080D2300085C
:1000C0000D2300080D2300080D2300080D23000850
:1000D0000D2300080D230008291F00080D23000828
:1000E0003D1F00080D2300080D230008000000003C
:1000F0000000000000000000000000000000000000
:0C01000000000000000000005FF808F1A3
:10010C0010B5054C237833B9044B13B10448AFF345
:10011C0000800123237010BDC800002000000000E7
:10012C005C5A000808B5034B1BB103490348AFF3F5
:10013C00008008BD00000000CC0000205C5A0008C4
:10014C0080B582B000AF00237B6068E0384A7B68E2
:10015C0052F8232037497B6841F82320364A7B68C4
:10016C0052F8232032497B6841F82320786800F04C
:10017C008DF8024630497B6841F823202D4A7B6874
:10018C0052F823202A497B6851F823309A4243D1F4
:10019C00274A7B6852F8232027497B6851F8233083
:1001AC009A4239D1254A7B6852F8232022497B6830
:1001BC0051F823309A421BD01F4A7B6852F82320F7
:1001CC001E497B6841F823201B4A7B6852F8233078
:1001DC00002B21D11A4A7B6852F8232019497B68DD
:1001EC0041F82320184A7B68012142F8231013E0C0
:1001FC00144A7B6852F823305A1E12497B6841F826
:10020C002320104A7B6852F82330002B04D10B4A70
:10021C007B68012142F823107B6801337B607B688B
:10022C00022B93DD00BF00BF0837BD4680BD00BF69
:10023C000C000020000000201800002024000020EA
:10024C0030000020180100202401002080B483B06D
:10025C0000AF78607B68022B0EDC0B4A7B6852F88F
:10026C002330012B06D1084A7B68002142F8231069
:10027C00012303E0002301E04FF0FF3318460C3755
:10028C00BD4680BC704700BF2401002080B582B001
:10029C0000AF78607B68022B20DC7B68022B16D0C9
:1002AC007B68022B1CDC7B68002B03D07B68012B4A
:1002BC0006D015E010210E4802F0EEFB034612E0CA
:1002CC004FF480610A4802F0E7FB03460BE04FF461
:1002DC008071084802F0E0FB034604E000BF00E038
:1002EC0000BF4FF0FF3318460837BD4680BD00BF36
:1002FC00000C01400008014080B400AF234B1B6888
:10030C00002B02D0012B0BD03BE0214B1B78212B77
:10031C0034D1204B00221A701C4B01221A602DE0A4
:10032C001B4B1B78232B0CD11A4B1B781A461A4BE0
:10033C0000219954194B01221A70144B00221A6097
:10034C001EE0134B1B78212B03D1124B00221A7089
:10035C0016E0104B1B781A460D4B19780E4B99541E
:10036C000C4B1B780133DAB20A4B1A70094B1B7811
:10037C001E2B05D1074B00221A7001E000BF00E0D4
:10038C0000BF00BFBD4680BC704700BFF00000201E
:10039C00F4000020F600002048010020F7000020A7
:1003AC0080B483B000AF786039607B68002B02D1D9
:1003BC00064A3B6813607B68012B02D1044A3B68F8
:1003CC00136000BF0C37BD4680BC70474401002051
:1003DC004001002080B400AF064B1B68013B054A6E
:1003EC001360054B1B68013B034A136000BFBD46FD
:1003FC0080BC7047440100204001002080B483B0D1
:10040C0000AF78607B68002B02D1084B1B6807E0BB
:10041C007B68012B02D1064B1B6801E04FF0FF33C8
:10042C0018460C37BD4680BC704700BF4401002005
:10043C004001002098B500AF184B01221A6001F062
:10044C00BBFD00F0EFFB0346154A136000F0E0FB28
:10045C000346144A136000F0E5FB044600F0D8FB99
:10046C0003461946204600F0F5FF0F4B1B68002B86
:10047C000ADC0022FA210D4801F0A6FB0A4B1B688E
:10048C000133094A136007E0074B00221A6000226F
:10049C00FA21074801F098FB00BF98BDEC00002042
:1004AC004401002040010020E40000204104000829
:1004BC00C104000880B584B000AF434B1B68062B09
:1004CC0001D100F092FF01F093FD0121002000F01A
:1004DC0096FF0021012000F092FF3C4B1B68092B7A
:1004EC0007DC3A4B1A683B463949184604F02CFF96
:1004FC0006E0364B1A683B463649184604F024FF92
:10050C003B46184600F05CFF304B1B68092B07DCA0
:10051C00314B1A683B463149184604F015FF06E08A
:10052C002D4B1A683B462E49184604F00DFF01214D
:10053C00002000F064FF3B46184600F041FF224BC0
:10054C000A221A60274B1B68022B0ADC0022FA21B4
:10055C00254801F039FB234B1B680133214A1360FA
:10056C002DE0204B00221A60FFF734FF174B1B685D
:10057C00194A12681146184600F06CFF164B1B689E
:10058C00002B17D10022FA21184801F01DFB00F0B6
:10059C0053FB0346104A136000F04EFB03460B4A14
:1005AC0013600A4B1B680C4A12681146184600F07F
:1005BC0051FF04E00022FA210B4801F005FB00BFBB
:1005CC001037BD4680BD00BFEC0000204401002068
:1005DC00745A0008845A000840010020945A0008FC
:1005EC00A45A0008E4000020C1040008FD0500081E
:1005FC0080B584B000AF434B1B68072B01D100F0D2
:10060C00F4FE01F011FD0121002000F0F8FE0021A4
:10061C00012000F0F4FE3C4B1B68092B07DC3A4B25
:10062C001A683B463949184604F08EFE06E0364BF4
:10063C001A683B463649184604F086FE3B46184677
:10064C0000F0BEFE304B1B68092B07DC314B1A68DF
:10065C003B463149184604F077FE06E02D4B1A68EC
:10066C003B462E49184604F06FFE0121002000F095
:10067C00C6FE3B46184600F0A3FE224B0B221A6026
:10068C00274B1B68022B0ADC0022FA21254801F0BB
:10069C009BFA234B1B680133214A13602DE0204B3E
:1006AC0000221A60FFF796FE174B1B68194A126856
:1006BC001146184600F0CEFE164B1B68002B17D1C6
:1006CC000022FA21184801F07FFA00F0A1FA034643
:1006DC000D4A136000F0A6FA03460E4A13600A4B4B
:1006EC001B680C4A12681146184600F0B3FE04E071
:1006FC000022FA210B4801F067FA00BF1037BD4603
:10070C0080BD00BFEC00002044010020745A00089A
:10071C00845A000840010020945A0008A45A00088A
:10072C00E4000020FD0500083907000880B584B0FE
:10073C0000AF434B1B68082B01D100F056FE01F0B3
:10074C008FFC0121002000F05AFE0021012000F056
:10075C0056FE3C4B1B68092B07DC3A4B1A683B4690
:10076C003949184604F0F0FD06E0364B1A683B4652
:10077C003649184604F0E8FD3B46184600F020FECA
:10078C00304B1B68092B07DC314B1A683B4631494F
:10079C00184604F0D9FD06E02D4B1A683B462E494D
:1007AC00184604F0D1FD0121002000F028FE3B4644
:1007BC00184600F005FE224B0C221A60274B1B68D2
:1007CC00022B0ADC0022FA21254801F0FDF9234B0B
:1007DC001B680133214A13602DE0204B00221A6064
:1007EC00FFF7F8FD174B1B68194A1268114618469B
:1007FC0000F030FE134B1B68002B17D10022FA219E
:10080C00184801F0E1F900F017FA03460D4A13609D
:10081C0000F012FA03460E4A13600A4B1B680C4A8E
:10082C0012681146184600F015FE04E00022FA2169
:10083C000B4801F0C9F900BF1037BD4680BD00BFA1
:10084C00EC00002044010020745A0008845A00086F
:10085C0040010020945A0008A45A0008E40000202B
:10086C00390700087508000880B584B000AF434B09
:10087C001B68092B01D100F0B8FD01F00DFC012122
:10088C00002000F0BCFD0021012000F0B8FD3C4B25
:10089C001B68092B07DC3A4B1A683B46394918464A
:1008AC0004F052FD06E0364B1A683B4636491846B2
:1008BC0004F04AFD3B46184600F082FD304B1B68A5
:1008CC00092B07DC314B1A683B463149184604F0BA
:1008DC003BFD06E02D4B1A683B462E49184604F0AA
:1008EC0033FD0121002000F08AFD3B46184600F044
:1008FC0067FD224B0D221A60274B1B68022B0ADC6A
:10090C000022FA21254801F05FF9234B1B680133C3
:10091C00214A13602DE0204B00221A60FFF75AFD8C
:10092C00174B1B68194A12681146184600F092FDC5
:10093C00134B1B68002B17D10022FA21184801F029
:10094C0043F900F06FF903460D4A136000F060F9AB
:10095C0003460E4A13600A4B1B680C4A1268114678
:10096C00184600F077FD04E00022FA210B4801F054
:10097C002BF900BF1037BD4680BD00BFEC00002036
:10098C0044010020745A0008845A000840010020D9
:10099C00945A0008A45A0008E400002075080008C6
:1009AC00C104000890B585B000AF0121002000F013
:1009BC0026FD3B461F49184604F0C6FC3B4618462C
:1009CC0000F0FEFC0021012000F019FD3B461A4905
:1009DC00184604F0B9FC3B46184600F0F1FC01F057
:1009EC0007FB042000F02DFD002242F21071134889
:1009FC0001F0EAF800F016F9034619460020FFF75B
:100A0C00CFFC00F005F9034619460120FFF7C8FC9E
:100A1C000020FFF7F3FC04460120FFF7EFFC034630
:100A2C001946204600F016FD00F050FD00BF1437AB
:100A3C00BD4690BDB45A0008C05A0008C104000855
:100A4C0090B585B000AF0121002000F0D8FC3B46EA
:100A5C001E49184604F078FC3B46184600F0B0FCE2
:100A6C000021012000F0CBFC3B461949184604F04C
:100A7C006BFC3B46184600F0A3FC01F0D5FA0420B1
:100A8C0000F0DFFC002242F21071124801F09CF8D9
:100A9C0000F0D2F8034619460020FFF781FC00F065
:100AAC00CBF8034619460120FFF77AFC0020FFF72C
:100ABC00A5FC04460120FFF7A1FC0346194620467D
:100ACC0000F0C8FC00BF1437BD4690BDB45A0008F6
:100ADC00D05A0008FD05000890B585B000AF012183
:100AEC00002000F08CFC3B461F49184604F02CFCFF
:100AFC003B46184600F064FC0021012000F07FFC0E
:100B0C003B461A49184604F01FFC3B46184600F0B9
:100B1C0057FC01F0A5FA042000F093FC002242F2ED
:100B2C001071134801F050F800F072F803461946A2
:100B3C000020FFF735FC00F075F80346194601203C
:100B4C00FFF72EFC0020FFF759FC04460120FFF7AD
:100B5C0055FC03461946204600F07CFC00F0B6FC20
:100B6C0000BF1437BD4690BDB45A0008E05A0008C7
:100B7C003907000890B585B000AF0121002000F0C6
:100B8C003EFC3B461F49184604F0DEFB3B4618462C
:100B9C0000F016FC0021012000F031FC3B461A4904
:100BAC00184604F0D1FB3B46184600F009FC01F056
:100BBC0073FA042000F045FC002242F21071134835
:100BCC0001F002F800F038F8034619460020FFF750
:100BDC00E7FB00F031F8034619460120FFF7E0FB74
:100BEC000020FFF70BFC04460120FFF707FC03462F
:100BFC001946204600F02EFC00F068FC00BF1437AC
:100C0C00BD4690BDB45A0008F05A0008750800089B
:100C1C0080B400AF024B1B681846BD4680BC7047C1
:100C2C003C00002080B400AF024B1B681846BD4648
:100C3C0080BC70474000002080B400AF024B1B68A2
:100C4C001846BD4680BC70474400002080B487B075
:100C5C0000AF78607B68012B07D1124B1B68FB60DF
:100C6C00104B00221A60FB6816E07B68022B07D140
:100C7C000D4B1B683B610C4B00221A603B690BE06F
:100C8C007B68032B07D1094B1B687B61074B002248
:100C9C001A607B6900E0002318461C37BD4680BCF7
:100CAC00704700BFFC000020000100200401002060
:100CBC0080B584B000AF0121002000F0A0FB3B46C2
:100CCC001F49184604F040FB3B46184600F078FBE1
:100CDC001C4B1B68092B07DC1A4B1A683B461A493C
:100CEC00184604F031FB06E0164B1A683B461749D0
:100CFC00184604F029FB0021012000F080FB3B4644
:100D0C00184600F05DFB124B1B685A1C10490A6018
:100D1C00002B02D101F0DCF908E00D4B1B68002B15
:100D2C0004D001F029FA0A4B00221A600022FA21A1
:100D3C00084800F049FF00BF1037BD4680BD00BF1A
:100D4C00005B00084C0000200C5B00081C5B0008DA
:100D5C00E8000020BD0C000880B584B000AF012174
:100D6C00002000F04CFB3B461F49184604F0ECFAFF
:100D7C003B46184600F024FB1C4B1B68092B07DC78
:100D8C001B4B1A683B461B49184604F0DDFA06E07B
:100D9C00174B1A683B461849184604F0D5FA00213F
:100DAC00012000F02CFB3B46184600F009FB134BCE
:100DBC001B685A1C11490A60002B02D101F0C0F9C2
:100DCC0008E00E4B1B68002B04D001F0D5F90B4B3F
:100DDC0000221A600022FA21094800F0F5FE00BF3B
:100DEC001037BD4680BD00BF2C5B00084C000020B6
:100DFC00500000203C5B00084C5B0008E800002021
:100E0C00650D000880B584B000AF0121002000F012
:100E1C00F6FA3B461F49184604F096FA3B4618462C
:100E2C0000F0CEFA1C4B1B68092B07DC1B4B1A6815
:100E3C003B461B49184604F087FA06E0174B1A6824
:100E4C003B461849184604F07FFA0021012000F0B7
:100E5C00D6FA3B46184600F0B3FA134B1B685A1CE3
:100E6C0011490A60002B02D101F04EF908E00E4B3B
:100E7C001B68002B04D001F07FF90B4B00221A6089
:100E8C000022FA21094800F09FFE00BF1037BD4632
:100E9C0080BD00BF5C5B00084C00002048000020B7
:100EAC006C5B00087C5B0008E8000020110E000859
:100EBC0080B500AF0020FFF7C9F90346002B06D11F
:100ECC000120FFF7C3FE0346002B00F096804D4B2C
:100EDC001B68063B0A2B00F2928001A252F823F009
:100EEC00ED0F0008ED0F0008ED0F0008ED0F0008E6
:100EFC00190F0008330F00084D0F0008670F00088A
:100F0C00810F0008A50F0008C90F000800F0BAFEF9
:100F1C003C4B06221A6000220A213B4800F054FE8A
:100F2C0000F063FA6CE000F0ADFE364B07221A605D
:100F3C0000220A21354800F047FE00F056FA5FE027
:100F4C0000F0A0FE2F4B08221A6000220A21304824
:100F5C0000F03AFE00F049FA52E000F093FE294B03
:100F6C0009221A6000220A212A4800F02DFE00F006
:100F7C003CFA45E000F086FE224B0F221A60264B0D
:100F8C0000221A6000F0A2FA00220A21234800F085
:100F9C001BFE00F02AFA33E000F074FE194B10220D
:100FAC001A601D4B00221A6000F090FA00220A21F0
:100FBC001B4800F009FE00F018FA21E000F062FE78
:100FCC00104B01221A60144B00221A6000F07EFABA
:100FDC0000220A21134800F0F7FD00F006FA0FE09A
:100FEC0000F050FE074B0E221A6000220A210E4818
:100FFC0000F0EAFD00F0F9F902E000BF00E000BFEC
:10100C0000BF80BDEC000020B10900084D0A0008AB
:10101C00E50A0008810B0008E8000020650D0008B7
:10102C00110E000841040008BD0C000880B500AF8B
:10103C000120FFF70BF90346002B05D10220FFF727
:10104C0005FE0346002B7FD0424B1B68063B0A2B48
:10105C007CD801A252F823F091100008A7100008C8
:10106C00BD100008D31000085911000859110008D0
:10107C005911000859110008E91000080D11000859
:10108C0031110008334B07221A6000F0FBFD0022DF
:10109C000A21314800F098FD59E02E4B08221A60C5
:1010AC0000F0F0FD00220A212C4800F08DFD4EE0EE
:1010BC00284B09221A6000F0E5FD00220A2128487D
:1010CC0000F082FD43E0234B06221A6000F0DAFDAB
:1010DC0000220A21234800F077FD38E0224B1B68E0
:1010EC00622B03DC204B1B68013300E000231E4AFB
:1010FC0013601D4B1B680221184600F0ABF926E06B
:10110C001A4B1B68622B03DC184B1B68013300E085
:10111C000023164A1360144B1B680221184600F07A
:10112C0099F914E0124B1B68622B03DC104B1B6803
:10113C00013300E000230E4A13600D4B1B680221A3
:10114C00184600F087F902E000BF00E000BF00BFC6
:10115C0080BD00BFEC0000204D0A0008E50A000825
:10116C00810B0008B10900084C0000205000002041
:10117C004800002080B500AF0220FFF767F8034657
:10118C00002B05D10320FFF761FD0346002B76D021
:10119C003D4B1B68102B4BD0102B72DC0E2B02D04E
:1011AC000F2B27D06DE0394B1A68394B1B68D31ABB
:1011BC00002B02DA374B1B6801E0344B1B68354AB5
:1011CC001360344B1A68344B1B689A4202D12F4B74
:1011DC001B6801E02F4B1B682C4A13602D4B1A68BF
:1011EC002B4B1B68D31A2D4A13602C4B1B682C4AB3
:1011FC00136047E0284B1A68284B1B681344632B79
:10120C0002DD234B1B6801E0234B1B68204A136053
:10121C001F4B1B68204A1360204B1A681C4B1B6821
:10122C0013441C4A13601B4B1B68184A136029E0BB
:10123C00164B1A68164B1B68D31A002B02DA154B87
:10124C001B6801E0114B1B68124A1360114B1A68A2
:10125C00114B1B689A4202D10C4B1B6801E00D4BE1
:10126C001B680A4A13600B4B1A68094B1B68D31A8C
:10127C000A4A1360094B1B68094A136002E000BF5D
:10128C0000E000BF00BF80BDEC0000204C0000203F
:10129C004400002040000020500000203C000020B2
:1012AC004800002080B586B002AF0346FB71FB7985
:1012BC0023F00F03FB73FB791B01BB73FB7B43F028
:1012CC000C03DBB23B72FB7B43F00803DBB27B729B
:1012DC00BB7B43F00C03DBB2BB72BB7B43F008035C
:1012EC00DBB2FB7207F10802642300930423422152
:1012FC00034801F07FFD00BF1037BD4680BD00BF25
:10130C00BC01002080B586B002AF0346FB71FB79AF
:10131C0023F00F03FB73FB791B01BB73FB7B43F0C7
:10132C000D03DBB23B72FB7B43F00903DBB27B7238
:10133C00BB7B43F00D03DBB2BB72BB7B43F00903F9
:10134C00DBB2FB7207F108026423009304234221F1
:10135C00034801F04FFD00BF1037BD4680BD00BFF4
:10136C00BC01002080B500AF3320FFF79BFF32207B
:10137C00FFF798FF322001F027F82820FFF792FFA3
:10138C00322001F021F80120FFF78CFF322001F010
:10139C001BF80620FFF786FF322001F015F80C2011
:1013AC00FFF780FF322001F00FF80220FFF77AFFE1
:1013BC00322001F009F88020FFF774FF00BF80BDD8
:1013CC0080B582B000AF786006E07B685A1C7A600A
:1013DC001B781846FFF796FF7B681B78002BF4D11F
:1013EC0000BF00BF0837BD4680BD80B500AF0120EF
:1013FC00FFF758FF322000F0E7FF00BF80BD80B53B
:10140C0084B000AF786039607B68002B08D17B68B2
:10141C00DAB23B68DBB21344DBB27F33FB7308E018
:10142C003B68DBB24033DBB25BB263F07F035BB291
:10143C00FB73FB7B1846FFF735FF00BF1037BD462B
:10144C0080BD80B483B000AF786000BF0C37BD4660
:10145C0080BC704780B483B000AF786039607B6823
:10146C00184A82FB03129210DB17D31A164A136028
:10147C007968144B83FB01239A10CB17D21A1346AD
:10148C009B0013445B00CA1A0F4B5A603B680D4A11
:10149C0082FB03129210DB17D31A0B4A9360396844
:1014AC00084B83FB01239A10CB17D21A13469B00CF
:1014BC0013445B00CA1A044BDA6000BF0C37BD46FC
:1014CC0080BC7047676666663001002080B400AF50
:1014DC00034B00221A6000BFBD4680BC704700BFA2
:1014EC000801002080B500AF2021024801F003FB69
:1014FC0000BF80BD0008014080B582B000AF7860AD
:10150C007B681B68134A93421FD1134B01221A703C
:10151C00124B1B785A1CD1B2104A11701A46104B40
:10152C001978104B99540D4B1B781E2B02D10B4B79
:10153C0000221A703223012209490B4803F002F8E9
:10154C0001220749084803F088F800BF0837BD4658
:10155C0080BD00BF00440040F5000020F8000020D2
:10156C00F40000206801002058020020F0B591B072
:10157C000EAF00F0C7FE00F073F800F057F900F062
:10158C002BF900F0DDF800F0ADF82A4802F0E8FB8A
:10159C0001222949294803F060F8294B3B600023BC
:1015AC003B71394632230522244802F0CBFFFFF76A
:1015BC00D9FE00F03BFA4FF47A724FF4FA612148ED
:1015CC0000F002FB0A22FA211F4800F0FDFA0A2261
:1015DC00FA211E4800F0F8FA0A22FA211C4800F001
:1015EC00F3FA0A22FA211B4800F0EEFA00220A2133
:1015FC00194800F0E9FA00F09DFA184B1B78012B02
:10160C0004D1FEF779FE154B00221A700B4E6D4675
:10161C0006F110040FCC0FC50FCC0FC50FCC0FC5A6
:10162C0094E8030085E8030096E80F0000F0C0FD85
:10163C00E1E700BF10020020F40000205802002057
:10164C0072756E00F1140008811100084D0100083C
:10165C0039100008BD0E000841040008F5000020F8
:10166C0080B590B000AF07F118032822002118466E
:10167C0003F0ACFD3B1D00221A605A609A60DA60E0
:10168C001A610223BB610123BB621023FB6202239C
:10169C007B630023BB634FF46013FB6307F11803F8
:1016AC00184601F0FFFE0346002B01D000F078F93C
:1016BC000F237B600223BB60A023FB604FF480638D
:1016CC003B6100237B613B1D0221184602F06AF945
:1016DC000346002B01D000F063F900BF4037BD4634
:1016EC0080BD000080B500AF124B134A1A60114B3D
:1016FC00124A5A600F4B00229A600E4B0022DA609D
:10170C000C4B4FF480421A610A4B00225A61094B70
:10171C0000229A61074B0022DA61064B00221A6202
:10172C00044801F023FA0346002B01D000F038F9ED
:10173C0000BF80BDBC01002000540040A086010009
:10174C0080B586B000AF07F1080300221A605A601A
:10175C009A60DA603B4600221A605A601D4B4FF0CB
:10176C0080421A601B4B41F63F725A60194B0022A3
:10177C009A60184B0922DA60164B00221A61154B3D
:10178C0000229A61134802F09BFA0346002B01D009
:10179C0000F006F94FF48053BB6007F108031946BB
:1017AC000C4802F01FFC0346002B01D000F0F8F8A7
:1017BC0000233B6000237B603B461946054802F042
:1017CC0001FE0346002B01D000F0EAF800BF1837E9
:1017DC00BD4680BD1002002080B500AF114B124AEF
:1017EC001A60104B4FF416525A600E4B00229A603E
:1017FC000C4B0022DA600B4B00221A61094B0C22B5
:10180C005A61084B00229A61064B0022DA610548A6
:10181C0002F048FE0346002B01D000F0C1F800BFD7
:10182C0080BD00BF580200200044004080B588B045
:10183C0000AF07F1100300221A605A609A60DA6058
:10184C004D4B9B694C4A43F0100393614A4B9B6987
:10185C0003F01003FB60FB68474B9B69464A43F05F
:10186C0020039361444B9B6903F02003BB60BB686E
:10187C00414B9B69404A43F0040393613E4B9B6987
:10188C0003F004037B607B683B4B9B693A4A43F053
:10189C0008039361384B9B6903F008033B603B687A
:1018AC0000222021354801F00EF900228021344815
:1018BC0001F009F900226821324801F004F94FF4D3
:1018CC0000533B61304B7B610023BB6107F110037C
:1018DC0019462B4800F05CFF20233B6101237B6100
:1018EC000023BB610223FB6107F110031946234857
:1018FC0000F04EFF4FF482633B6100237B610123B8
:10190C00BB6107F1100319461E4800F041FF80230C
:10191C003B6101237B610023BB610223FB6107F167
:10192C0010031946164800F033FF4FF440733B6127
:10193C0000237B610123BB6107F1100319460F489B
:10194C0000F026FF68233B6101237B610023BB6110
:10195C000223FB6107F1100319460A4800F018FF37
:10196C0000220021282000F02AFE282000F043FE4F
:10197C0000BF2037BD4680BD00100240000801406A
:10198C0000100140000C01400000111080B582B025
:10199C0000AF786000F060F800BF0837BD4680BD2E
:1019AC0080B400AF72B600BFFEE7000080B483B015
:1019BC0000AF0346FB71FB79092B30D8FA791A4931
:1019CC0013469B0013449B000B4400221A60FA79C7
:1019DC00154913469B0013449B000B44043300220F
:1019EC001A60FA79104913469B0013449B000B4470
:1019FC00083300221A60FA790B4913469B001344F2
:101A0C009B000B440C3300221A70FA7906491346DA
:101A1C009B0013449B000B44103300221A6000BF40
:101A2C000C37BD4680BC7047A002002080B582B048
:101A3C0000AF0023FB7106E0FB791846FFF7B6FFF9
:101A4C00FB790133FB71FB79092BF5D900BF00BF82
:101A5C000837BD4680BD000080B483B000AF0023C2
:101A6C00FB715CE0FA79324913469B0013449B00EE
:101A7C000B441B68002B4FD0FA792D4913469B0061
:101A8C0013449B000B4404331B68002B32D1FA79AE
:101A9C00274913469B0013449B000B440C331B78C3
:101AAC00FA790133D8B2224913469B0013449B00A8
:101ABC000B440C3302461A70FA791D4913469B00ED
:101ACC0013449B000B4408331B68002B24D0F9797A
:101ADC00FA7917480B469B000B449B0003440833D0
:101AEC001968134813469B0013449B0003440433AA
:101AFC00196011E0FA790E4913469B0013449B00C0
:101B0C000B4404331B68591E094813469B001344AD
:101B1C009B00034404331960FB790133FB71FB799F
:101B2C00092B9FD900BF00BF0C37BD4680BC704746
:101B3C00A002002080B582B000AF0023FB7139E019
:101B4C00FA79204913469B0013449B000B440C3339
:101B5C001B78002B2BD0FA791A4913469B0013449F
:101B6C009B000B441B689847FA79164913469B0057
:101B7C0013449B000B440C331B78013BD8B2114926
:101B8C0013469B0013449B000B440C3302461A7003
:101B9C00FA790C4913469B0013449B000B44083301
:101BAC001B68002B03D1FB791846FFF7FFFEFB796E
:101BBC000133FB71FB79092BC2D900BF00BF083779
:101BCC00BD4680BDA002002080B487B000AFF86095
:101BDC00B9607A600023FB7502E0FB7D0133FB7575
:101BEC00FA7D264913469B0013449B000B441B684B
:101BFC00002B02D0FB7D092BEFD9FB7D092B38D8AC
:101C0C00FA7D1E4913469B0013449B000B44FA6853
:101C1C001A60FA7DBB681A49A1FB0313D90817484F
:101C2C0013469B0013449B00034404331960FA7D54
:101C3C007B681349A1FB0313D908104813469B007A
:101C4C0013449B00034408331960FA7D0B49134677
:101C5C009B0013449B000B440C3300221A70FA7D3A
:101C6C00F97D064813469B0013449B000344103334
:101C7C00196000BF1C37BD4680BC7047A002002015
:101C8C00CDCCCCCC80B582B000AF0023FB711CE076
:101C9C00FA79124913469B0013449B000B440833FA
:101CAC001B68002B0ED1FA790C4913469B00134488
:101CBC009B000B4404331B68002B03D0FB791846A4
:101CCC00FFF774FEFB790133FB71FB79092BDFD92C
:101CDC0000BF00BF0837BD4680BD00BFA00200207A
:101CEC0080B485B000AF154B9B69144A43F00103D7
:101CFC009361124B9B6903F00103BB60BB680F4BF4
:101D0C00DB690E4A43F08053D3610C4BDB6903F063
:101D1C0080537B607B680A4B5B68FB60FB6823F03D
:101D2C00E063FB60FB6843F00073FB60044AFB68F4
:101D3C00536000BF1437BD4680BC70470010024092
:101D4C000000014080B58AB000AF786007F1140341
:101D5C0000221A605A609A60DA607B681B681D4A20
:101D6C00934232D11C4B9B691B4A43F0080393618D
:101D7C00194B9B6903F008033B613B694FF44073BB
:101D8C007B611223BB6103233B6207F114031946E9
:101D9C00124800F0FDFC124B5B687B627B6A43F0DF
:101DAC00E0637B627B6A43F002037B620C4A7B6AD2
:101DBC005360094BDB69084A43F40013D361064BAB
:101DCC00DB6903F40013FB60FB6800BF2837BD46DA
:101DDC0080BD00BF0054004000100240000C0140C8
:101DEC000000014080B584B000AF78607B681B6850
:101DFC00B3F1804F13D10C4BDB690B4A43F0010359
:101E0C00D361094BDB6903F00103FB60FB68002223
:101E1C0000211C2000F0D3FB1C2000F0ECFB00BFC9
:101E2C001037BD4680BD00BF0010024080B588B0A1
:101E3C0000AF786007F1100300221A605A609A60B4
:101E4C00DA607B681B68194A93422BD1184BDB690B
:101E5C00174A43F40033D361154BDB6903F40033A9
:101E6C00FB60FB68124B9B69114A43F004039361BE
:101E7C000F4B9B6903F00403BB60BB680C233B61F5
:101E8C0002237B610223FB6107F110031946094809
:101E9C0000F07EFC00220021262000F090FB262082
:101EAC0000F0A9FB00BF2037BD4680BD00440040B8
:101EBC00001002400008014080B400AFFEE780B47F
:101ECC0000AFFEE780B400AFFEE780B400AFFEE7E2
:101EDC0080B400AFFEE780B400AF00BFBD4680BC4D
:101EEC00704780B400AF00BFBD4680BC704780B463
:101EFC0000AF00BFBD4680BC704780B500AF00F09E
:101F0C0047FA00BF80BD000080B500AF024801F069
:101F1C0079FF00BF80BD00BF1002002080B500AF6C
:101F2C00024802F0BFFB00BF80BD00BF580200207A
:101F3C0080B500AF4FF4005000F0F6FD00BF80BD3F
:101F4C0080B586B000AF7860144A154BD31A7B610C
:101F5C007B693B61134B1B68002B02D1114B124A5E
:101F6C001A60104B1A687B6813443A699A4207D27C
:101F7C0003F002F903460C221A604FF0FF3309E01C
:101F8C00084B1B68FB60074B1A687B681344054AB7
:101F9C001360FB6818461837BD4680BD0050002002
:101FAC00000400000C0100208003002080B400AF6E
:101FBC0000BFBD4680BC704780B500AF00228021B9
:101FCC00094800F080FD00224021084800F07BFD0C
:101FDC0000220821054800F076FD0022202103484C
:101FEC0000F071FD00BF80BD00100140000C0140ED
:101FFC0080B500AF01224021094800F064FD0122A8
:10200C008021084800F05FFD00222021044800F0E8
:10201C005AFD01220821024800F055FD00BF80BD89
:10202C00000C01400010014080B500AF012240219E
:10203C00094800F048FD01228021084800F043FDCA
:10204C0001222021044800F03EFD00220821024814
:10205C0000F039FD00BF80BD000C014000100140B4
:10206C0080B500AF00224021094800F02CFD012270
:10207C008021084800F027FD01222021044800F0AF
:10208C0022FD01220821024800F01DFD00BF80BD89
:10209C00000C01400010014080B500AF012240212E
:1020AC00094800F010FD00228021084800F00BFDCB
:1020BC0001222021044800F006FD012208210248DB
:1020CC0000F001FD00BF80BD000C0140001001407C
:1020DC0080B500AF01224021094800F0F4FC012238
:1020EC008021084800F0EFFC01222021044800F078
:1020FC00EAFC01220821024800F0E5FC00BF80BD8B
:10210C00000C01400010014080B500AF00224021BE
:10211C00094800F0D8FC01228021084800F0D3FCCB
:10212C0000222021044800F0CEFC012208210248A4
:10213C0000F0C9FC00BF80BD000C01400010014044
:10214C0080B500AF01224021094800F0BCFC002200
:10215C008021084800F0B7FC01222021044800F03F
:10216C00B2FC00220821024800F0ADFC00BF80BD8B
:10217C00000C01400010014080B500AF002280210E
:10218C00094800F0A0FC00224021084800F09BFC0C
:10219C0000220821054800F096FC0022202103486B
:1021AC0000F091FC00BF80BD00100140000C01400C
:1021BC0084B080B586B000AF07F1200C8CE80F001E
:1021CC00344B1B680A2B02D00B2B0BD05AE0324B32
:1021DC001B78012B53D1304B00221A702D4B0B2244
:1021EC001A604CE02D4B1B78312B15D12C4B012256
:1021FC001A602C4A07F1100392E8030018600433AC
:10220C00197007F110013223052207F1200002F0AA
:10221C0099F9204B0A221A60204B1B78322B15D1CE
:10222C00214B01221A60214A07F1080392E80300AE
:10223C0018600433197007F108013223052207F1E5
:10224C00200002F07FF9134B0A221A60134B1B7803
:10225C00332B16D1164B01221A60164A3B4692E8D4
:10226C00030018600433197039463223052207F134
:10227C00200002F067F9074B0A221A6001E000BF48
:10228C0000E000BF00BF1837BD46BDE8804004B079
:10229C00704700BF54000020F700002048010020C8
:1022AC00FC0000208C5B000800010020945B0008FF
:1022BC00040100209C5B0008FFF778FE0B480C49DA
:1022CC000C4A002302E0D458C4500433C4188C4286
:1022DC00F9D3094A094C002301E013600432A242ED
:1022EC00FBD302F04FFFFFF741F9704700000020CD
:1022FC00C80000200C5C0008C80000207C030020F3
:10230C00FEE7000080B500AF084B1B68074A43F09E
:10231C0010031360032000F047F9002000F008F8C8
:10232C00FFF7DEFC0023184680BD00BF00200240F2
:10233C0080B582B000AF7860124B1A68124B1B78D4
:10234C0019464FF47A73B3FBF1F3B2FBF3F318466F
:10235C0000F05FF90346002B01D001230EE07B68EF
:10236C000F2B0AD8002279684FF0FF3000F027F9C4
:10237C00064A7B681360002300E0012318460837E7
:10238C00BD4680BD58000020600000205C0000208D
:10239C0080B400AF054B1B781A46054B1B681344E1
:1023AC00034A136000BFBD4680BC7047600000202C
:1023BC006803002080B400AF024B1B681846BD4672
:1023CC0080BC70476803002080B584B000AF786093
:1023DC00FFF7F0FFB8607B68FB60FB68B3F1FF3F71
:1023EC0005D00A4B1B781A46FB681344FB6000BFF0
:1023FC00FFF7E0FF0246BB68D31AFA689A42F7D897
:10240C0000BF00BF1037BD4680BD00BF600000207C
:10241C0080B485B000AF78607B6803F00703FB6085
:10242C000C4BDB68BB60BA684FF6FF031340BB6014
:10243C00FB681A02BB68134343F0BF6343F40033D9
:10244C00BB60044ABB68D36000BF1437BD4680BC78
:10245C00704700BF00ED00E080B400AF044BDB68B8
:10246C001B0A03F007031846BD4680BC704700BF2B
:10247C0000ED00E080B483B000AF0346FB7197F928
:10248C000730002B0BDBFB7903F01F02064997F991
:10249C0007305B09012000FA02F241F8232000BF4B
:1024AC000C37BD4680BC704700E100E080B483B0BF
:1024BC0000AF03463960FB7197F90730002B0ADB3C
:1024CC003B68DAB20C4997F907301201D2B20B44CF
:1024DC0083F800230AE03B68DAB20849FB7903F081
:1024EC000F03043B1201D2B20B441A7600BF0C3717
:1024FC00BD4680BC704700BF00E100E000ED00E08D
:10250C0080B489B000AFF860B9607A60FB6803F002
:10251C000703FB61FB69C3F10703042B28BF0423EA
:10252C00BB61FB690433062B02D9FB69033B00E05A
:10253C0000237B614FF0FF32BB6902FA03F3DA43ED
:10254C00BB681A407B699A404FF0FF317B6901FAF6
:10255C0003F3D9437B680B40134318462437BD461D
:10256C0080BC704780B582B000AF78607B68013B5F
:10257C00B3F1807F01D301230FE00A4A7B68013B52
:10258C0053600F214FF0FF30FFF790FF054B0022F7
:10259C009A60044B07221A60002318460837BD4680
:1025AC0080BD00BF10E000E080B582B000AF786065
:1025BC007868FFF72DFF00BF0837BD4680BD80B59A
:1025CC0086B000AF0346B9607A60FB7300237B6171
:1025DC00FFF742FF78617A68B9687869FFF790FF76
:1025EC00024697F90F3011461846FFF75FFF00BF00
:1025FC001837BD4680BD80B582B000AF0346FB7175
:10260C0097F907301846FFF735FF00BF0837BD466E
:10261C0080BD80B582B000AF78607868FFF7A2FF0C
:10262C00034618460837BD4680BD80B485B000AF60
:10263C0078600023FB737B6893F82130DBB2022BAC
:10264C0008D07B6804229A637B68002283F82020E0
:10265C00012320E07B681B681A687B681B6822F0EA
:10266C000E021A607B681B681A687B681B6822F074
:10267C0001021A607B681A6C7B68DB6B012101FA22
:10268C0002F25A607B68012283F821207B680022C9
:10269C0083F82020FB7B18461437BD4680BC70475E
:1026AC0080B584B000AF78600023FB737B6893F82F
:1026BC002130DBB2022B05D07B6804229A63012304
:1026CC00FB7351E07B681B681A687B681B6822F0FF
:1026DC000E021A607B681B681A687B681B6822F004
:1026EC0001021A607B681B68224A934229D07B68DE
:1026FC001B68214A934222D07B681B681F4A934275
:10270C001AD07B681B681E4A934212D07B681B68E8
:10271C001C4A93420AD07B681B681B4A934202D125
:10272C004FF480130EE04FF080730BE04FF48033C6
:10273C0008E04FF4805305E04FF4807302E010235F
:10274C0000E00123114A53607B68012283F82120A9
:10275C007B68002283F820207B685B6B002B03D006
:10276C007B685B6B78689847FB7B18461037BD46D7
:10277C0080BD00BF080002401C0002403000024037
:10278C0044000240580002406C000240000002402D
:10279C0080B48BB000AF7860396000237B6200237B
:1027AC003B6269E101227B6A02FA03F3FB613B683D
:1027BC001B68FA691340BB61BA69FB699A4240F025
:1027CC0058813B685B689A4A93425ED0984A934220
:1027DC0075D8984A934258D0964A93426FD8964AE5
:1027EC00934252D0944A934269D8944A93424CD023
:1027FC00924A934263D8924A934246D0904A93426B
:10280C005DD8122B2AD8122B59D801A252F823F0DA
:10281C00972800087128000883280008C52800089C
:10282C00CB280008CB280008CB280008CB280008B0
:10283C00CB280008CB280008CB280008CB280008A0
:10284C00CB280008CB280008CB280008CB28000890
:10285C00CB280008792800088D280008794A934273
:10286C0013D02CE03B68DB683B6229E03B68DB68FB
:10287C0004333B6224E03B68DB6808333B621FE0B7
:10288C003B68DB680C333B621AE03B689B68002BAF
:10289C0002D104233B6213E03B689B68012B05D1FA
:1028AC0008233B627B68FA691A6109E008233B62E2
:1028BC007B68FA695A6103E000233B6200E000BFC9
:1028CC00BB69FF2B01D87B6801E07B6804337B611B
:1028DC00BB69FF2B02D87B6A9B0002E07B6A083B3A
:1028EC009B003B617B691A680F213B6901FA03F37A
:1028FC00DB431A40396A3B6901FA03F31A437B69DB
:10290C001A603B685B6803F08053002B00F0B180C9
:10291C004D4B9B694C4A43F0010393614A4B9B69B5
:10292C0003F00103BB60BB68484A7B6A9B08023317
:10293C0052F82330FB607B6A03F003039B000F22E9
:10294C0002FA03F3DB43FA681340FB607B68404AEE
:10295C00934213D07B683F4A93420DD07B683E4A2A
:10296C00934207D07B683D4A934201D1032306E092
:10297C00042304E0022302E0012300E000237A6A2E
:10298C0002F0030292009340FA681343FB602F4954
:10299C007B6A9B080233FA6841F823203B685B682A
:1029AC0003F48013002B06D02D4B9A682C49BB697D
:1029BC0013438B6006E02A4B9A68BB69DB432849BA
:1029CC0013408B603B685B6803F40013002B06D04C
:1029DC00234BDA682249BB691343CB6006E0204BDA
:1029EC00DA68BB69DB431E491340CB603B685B680C
:1029FC0003F40033002B06D0194B5A681849BB69F5
:102A0C0013434B6006E0164B5A68BB69DB43144911
:102A1C0013404B603B685B6803F48033002B21D080
:102A2C000F4B1A680E49BB6913430B6021E000BFC2
:102A3C0000003210000031100000221000002110A4
:102A4C0000001210000011100010024000000140A4
:102A5C0000080140000C014000100140001401402E
:102A6C00000401400B4B1A68BB69DB430949134056
:102A7C000B607B6A01337B623B681A687B6A22FAC3
:102A8C0003F3002B7FF48EAE00BF00BF2C37BD4686
:102A9C0080BC70470004014080B485B000AF786002
:102AAC000B467B807B689A687B881340002B02D096
:102ABC000123FB7301E00023FB73FB7B18461437E7
:102ACC00BD4680BC704780B483B000AF78600B46C5
:102ADC007B8013467B707B78002B03D07A887B68D5
:102AEC001A6103E07B881A047B681A6100BF0C37FB
:102AFC00BD4680BC704780B485B000AF78600B4693
:102B0C007B807B68DB68FB607A88FB6813401A0467
:102B1C00FB68D9437B880B401A437B681A6100BF62
:102B2C001437BD4680BC704780B582B000AF0346F9
:102B3C00FB80084B5A69FB881340002B06D0054AD2
:102B4C00FB885361FB88184600F006F800BF083775
:102B5C00BD4680BD0004014080B483B000AF034685
:102B6C00FB8000BF0C37BD4680BC704780B584B07D
:102B7C0000AF78607B68002B01D101232BE17B68CF
:102B8C0093F83D30DBB2002B06D17B68002283F832
:102B9C003C207868FFF7D6F87B68242283F83D2028
:102BAC007B681B681A687B681B6822F001021A603C
:102BBC007B681B681A687B681B6842F400421A60C9
:102BCC007B681B681A687B681B6822F400421A60D9
:102BDC0001F030F8F8607B685B68814A934207D853
:102BEC00FB68804A934294BF01230023DBB206E0CA
:102BFC00FB687D4A934294BF01230023DBB2002B78
:102C0C0001D00123E7E0FB68784AA2FB03239B0C6D
:102C1C00BB607B681B685B6823F03F017B681B68AB
:102C2C00BA680A435A607B681B681B6A23F03F0131
:102C3C007B685B686A4A934202D8BB68013309E03F
:102C4C00BB684FF4967202FB03F3694AA2FB0323A1
:102C5C009B0901337A6812680B4313627B681B680B
:102C6C00DB6923F44F4222F0FF027B685B685C490E
:102C7C008B4219D8FB68591E7B685B685B00B1FB03
:102C8C00F3F3591C40F6FC730B40002B0AD0FB6885
:102C9C00591E7B685B685B00B1FBF3F30133C3F334
:102CAC000B0351E004234FE07B689B68002B11D190
:102CBC00FB68581E7B6859680B465B000B44B0FBE5
:102CCC00F3F30133C3F30B03002B0CBF01230023DD
:102CDC00DBB212E0FB68581E7B6859680B469B0000
:102CEC000B4499000B44B0FBF3F30133C3F30B0318
:102CFC00002B0CBF01230023DBB2002B01D00123DE
:102D0C0022E07B689B68002B0ED1FB68581E7B6809
:102D1C0059680B465B000B44B0FBF3F30133C3F370
:102D2C000B0343F400430FE0FB68581E7B685968A3
:102D3C000B469B000B4499000B44B0FBF3F301339F
:102D4C00C3F30B0343F44043796809681343CB6125
:102D5C007B681B681B6823F0C0017B68DA697B68A1
:102D6C001B6A1A437B681B680A431A607B681B68E2
:102D7C009B6823F4034323F0FF037A6811697A6894
:102D8C00D26811437A6812680B4393607B681B68A6
:102D9C00DB6823F0FF017B685A697B689B691A43E7
:102DAC007B681B680A43DA607B681B681A687B685F
:102DBC001B6842F001021A607B6800221A647B686F
:102DCC00202283F83D207B6800221A637B68002256
:102DDC0083F83E20002318461037BD4680BD00BF47
:102DEC00A08601007F841E00FF083D0083DE1B438C
:102DFC00D34D621080B588B002AFF8607A601A4685
:102E0C000B467B8113463B81FFF7D4FA7861FB6854
:102E1C0093F83D30DBB2202B40F0E0807B690093CF
:102E2C00192301227049F86800F064F90346002B5D
:102E3C0001D00223D3E0FB6893F83C30012B01D185
:102E4C000223CCE0FB68012283F83C20FB681B6862
:102E5C001B6803F00103012B07D0FB681B681A6881
:102E6C00FB681B6842F001021A60FB681B681A6859
:102E7C00FB681B6822F400621A60FB68212283F84D
:102E8C003D20FB68102283F83E20FB6800221A6468
:102E9C00FB687A685A62FB683A895A85FB685B8DD5
:102EAC009AB2FB681A85FB68504ADA6279897B69A9
:102EBC003A6AF86800F09CF80346002B01D0012315
:102ECC008DE000233B61FB681B685B693B61FB6821
:102EDC001B689B693B613B6966E07A69396AF868F3
:102EEC0000F022FA0346002B0DD0FB681B6C042B60
:102EFC0007D1FB681B681A68FB681B6842F40072F8
:102F0C001A6001236BE0FB685B6A1A78FB681B682C
:102F1C001A61FB685B6A5A1CFB685A62FB685B8D22
:102F2C009BB2013B9AB2FB685A85FB681B8D013B37
:102F3C009AB2FB681A85FB681B685B6903F0040393
:102F4C00042B1BD1FB681B8D002B17D0FB685B6A15
:102F5C001A78FB681B681A61FB685B6A5A1CFB6871
:102F6C005A62FB685B8D9BB2013B9AB2FB685A8537
:102F7C00FB681B8D013B9AB2FB681A857A69396A2A
:102F8C00F86800F019FA0346002B0DD0FB681B6C97
:102F9C00042B07D1FB681B681A68FB681B6842F49A
:102FAC0000721A6001231AE0FB681B8D002B94D170
:102FBC00FB681B681A68FB681B6842F400721A6095
:102FCC00FB68202283F83D20FB68002283F83E201A
:102FDC00FB68002283F83C20002300E00223184603
:102FEC001837BD4680BD00BF020010000000FFFF77
:102FFC0080B588B002AFF8607A603B600B467B818D
:10300C00FB68DB6A7B617B69082B06D07B69012B33
:10301C0003D07B6913F5803F08D1FB681B681A68E5
:10302C00FB681B6842F480721A600BE0FB681B6B38
:10303C00122B07D1FB681B681A68FB681B6842F4EB
:10304C0080721A603B6800937B6800224FF001117C
:10305C00F86800F04FF80346002B0DD0FB681B6896
:10306C001B6803F48073B3F5807F03D1FB684FF4C6
:10307C0000721A64032335E0FB681B69B3F5804FBB
:10308C0008D17B89DBB21A46FB681B6802F0FE0292
:10309C001A611BE07B89DB11DBB203F00603DBB2A8
:1030AC0063F00F03DAB2FB681B681A613B687A683D
:1030BC000E49F86800F098F80346002B01D0012364
:1030CC0010E07B89DAB2FB681B681A613B687A688E
:1030DC000749F86800F088F80346002B01D001235B
:1030EC0000E0002318461837BD4680BD08000100DB
:1030FC000200010080B584B000AFF860B9603B609D
:10310C001346FB7148E03B68B3F1FF3F44D0FFF737
:10311C0051F90246BB69D31A3A689A4202D33B680A
:10312C00002B39D1BB681B0CDBB2012B0DD1FB681A
:10313C001B685B69DA43BB6813409BB2002B0CBF66
:10314C0001230023DBB21A460CE0FB681B689B6969
:10315C00DA43BB6813409BB2002B0CBF0123002346
:10316C00DBB21A46FB799A4216D1FB6800221A632D
:10317C00FB68202283F83D20FB68002283F83E2068
:10318C00FB681B6C43F02002FB681A64FB6800228E
:10319C0083F83C20012323E0BB681B0CDBB2012B22
:1031AC000DD1FB681B685B69DA43BB6813409BB2AB
:1031BC00002B0CBF01230023DBB21A460CE0FB688A
:1031CC001B689B69DA43BB6813409BB2002B0CBF96
:1031DC0001230023DBB21A46FB799A4293D00023D9
:1031EC0018461037BD4680BD80B584B000AFF8607E
:1031FC00B9607A603B6071E0FB681B685B6903F443
:10320C008063B3F5806F23D1FB681B681A68FB6879
:10321C001B6842F400721A60FB681B686FF48062D2
:10322C005A61FB6800221A63FB68202283F83D2058
:10323C00FB68002283F83E20FB681B6C43F0040201
:10324C00FB681A64FB68002283F83C20012367E0CA
:10325C007B68B3F1FF3F41D0FFF7ACF802463B6807
:10326C00D31A7A689A4202D37B68002B36D1BB689A
:10327C001B0CDBB2012B0CD1FB681B685B69DA43BE
:10328C00BB6813409BB2002B14BF01230023DBB29D
:10329C000BE0FB681B689B69DA43BB6813409BB26D
:1032AC00002B14BF01230023DBB2002B16D0FB68CC
:1032BC0000221A63FB68202283F83D20FB68002261
:1032CC0083F83E20FB681B6C43F02002FB681A64F9
:1032DC00FB68002283F83C20012321E0BB681B0C17
:1032EC00DBB2012B0CD1FB681B685B69DA43BB6852
:1032FC0013409BB2002B14BF01230023DBB20BE065
:10330C00FB681B689B69DA43BB6813409BB2002BBC
:10331C0014BF01230023DBB2002B7FF46DAF00231D
:10332C0018461037BD4680BD80B584B000AFF8603C
:10333C00B9607A6034E0F86800F086F80346002B38
:10334C0001D0012334E0BB68B3F1FF3F28D0FFF775
:10335C0031F802467B68D31ABA689A4202D3BB682A
:10336C00002B1DD1FB681B685B6903F08003802B6D
:10337C0016D0FB6800221A63FB68202283F83D20DC
:10338C00FB68002283F83E20FB681B6C43F0200294
:10339C00FB681A64FB68002283F83C20012307E0D9
:1033AC00FB681B685B6903F08003802BC3D100238F
:1033BC0018461037BD4680BD80B584B000AFF860AC
:1033CC00B9607A6034E0F86800F03EF80346002BF0
:1033DC0001D0012334E0BB68B3F1FF3F28D0FEF7E6
:1033EC00E9FF02467B68D31ABA689A4202D3BB68DB
:1033FC00002B1DD1FB681B685B6903F00403042BD5
:10340C0016D0FB6800221A63FB68202283F83D204B
:10341C00FB68002283F83E20FB681B6C43F0200203
:10342C00FB681A64FB68002283F83C20012307E048
:10343C00FB681B685B6903F00403042BC3D10023F6
:10344C0018461037BD4680BD80B483B000AF78609D
:10345C007B681B685B6903F48063B3F5806F1BD1D9
:10346C007B681B686FF480625A617B6800221A6368
:10347C007B68202283F83D207B68002283F83E2065
:10348C007B681B6C43F004027B681A647B68002227
:10349C0083F83C20012300E0002318460C37BD467E
:1034AC0080BC704780B586B000AF78607B68002B1D
:1034BC0001D101236CE27B681B6803F00103002B34
:1034CC0000F08780924B5B6803F00C03042B0CD04C
:1034DC008F4B5B6803F00C03082B12D18C4B5B6891
:1034EC0003F48033B3F5803F0BD1894B1B6803F495
:1034FC000033002B6CD07B685B68002B68D10123F8
:10350C0046E27B685B68B3F5803F06D1804B1B6855
:10351C007F4A43F4803313602EE07B685B68002B9A
:10352C000CD17B4B1B687A4A23F480331360784BA5
:10353C001B68774A23F4802313601DE07B685B686B
:10354C00B3F5A02F0CD1724B1B68714A43F4802346
:10355C0013606F4B1B686E4A43F4803313600BE0AF
:10356C006B4B1B686A4A23F480331360684B1B68EF
:10357C00674A23F4802313607B685B68002B13D0AD
:10358C00FEF718FF386108E0FEF714FF02463B69AE
:10359C00D31A642B01D90323FAE15D4B1B6803F4A6
:1035AC000033002BF0D014E0FEF704FF386108E084
:1035BC00FEF700FF02463B69D31A642B01D90323A3
:1035CC00E6E1534B1B6803F40033002BF0D100E011
:1035DC0000BF7B681B6803F00203002B63D04C4BCD
:1035EC005B6803F00C03002B0BD0494B5B6803F0BA
:1035FC000C03082B1CD1464B5B6803F48033002B67
:10360C0016D1434B1B6803F00203002B05D07B68DB
:10361C001B69012B01D00123BAE13D4B1B6823F040
:10362C00F8027B685B69DB00394913430B603AE0B5
:10363C007B681B69002B20D0364B01221A60FEF7E9
:10364C00B9FE386108E0FEF7B5FE02463B69D31AB5
:10365C00022B01D903239BE12D4B1B6803F00203C2
:10366C00002BF0D02A4B1B6823F0F8027B685B69B7
:10367C00DB00274913430B6015E0264B00221A6030
:10368C00FEF798FE386108E0FEF794FE02463B69AF
:10369C00D31A022B01D903237AE11D4B1B6803F0CB
:1036AC000203002BF0D17B681B6803F00803002B8E
:1036BC003AD07B689B69002B19D0174B01221A60FA
:1036CC00FEF778FE386108E0FEF774FE02463B69AF
:1036DC00D31A022B01D903235AE10D4B5B6A03F079
:1036EC000203002BF0D0012000F0CCFA1CE00A4BB6
:1036FC0000221A60FEF75EFE38610FE0FEF75AFEFC
:10370C0002463B69D31A022B08D9032340E100BFC0
:10371C000010024000004242800442429E4B5B6A11
:10372C0003F00203002BE9D17B681B6803F0040350
:10373C00002B00F0A6800023FB75974BDB6903F090
:10374C008053002B0DD1944BDB69934A43F080538B
:10375C00D361914BDB6903F08053BB60BB680123E1
:10376C00FB758E4B1B6803F48073002B18D18B4BAD
:10377C001B688A4A43F480731360FEF71BFE3861A2
:10378C0008E0FEF717FE02463B69D31A642B01D9F9
:10379C000323FDE0814B1B6803F48073002BF0D0F6
:1037AC007B68DB68012B06D17B4B1B6A7A4A43F0A2
:1037BC00010313622DE07B68DB68002B0CD1764B88
:1037CC001B6A754A23F001031362734B1B6A724A1E
:1037DC0023F0040313621CE07B68DB68052B0CD11F
:1037EC006D4B1B6A6C4A43F0040313626A4B1B6AF1
:1037FC00694A43F0010313620BE0674B1B6A664A8C
:10380C0023F001031362644B1B6A634A23F0040325
:10381C0013627B68DB68002B15D0FEF7CBFD38619B
:10382C000AE0FEF7C7FD02463B69D31A41F2883223
:10383C00934201D90323ABE0574B1B6A03F00203FD
:10384C00002BEED014E0FEF7B5FD38610AE0FEF770
:10385C00B1FD02463B69D31A41F28832934201D939
:10386C00032395E04C4B1B6A03F00203002BEED1B3
:10387C00FB7D012B05D1484BDB69474A23F0805374
:10388C00D3617B68DB69002B00F08180424B5B6865
:10389C0003F00C03082B61D07B68DB69022B46D14B
:1038AC003F4B00221A60FEF785FD386108E0FEF7F9
:1038BC0081FD02463B69D31A022B01D9032367E031
:1038CC00354B1B6803F00073002BF0D17B681B6A2F
:1038DC00B3F5803F08D1304B5B6823F400327B6832
:1038EC009B682D4913434B602B4B5B6823F474127C
:1038FC007B68196A7B685B6A0B43274913434B60EF
:10390C00274B01221A60FEF755FD386108E0FEF7DF
:10391C0051FD02463B69D31A022B01D9032337E030
:10392C001D4B1B6803F00073002BF0D02FE01C4BD9
:10393C0000221A60FEF73EFD386108E0FEF73AFD02
:10394C0002463B69D31A022B01D9032320E0124B08
:10395C001B6803F00073002BF0D118E07B68DB6967
:10396C00012B01D1012313E00B4B5B68FB60FB685F
:10397C0003F480327B681B6A9A4206D1FB6803F41D
:10398C0070127B685B6A9A4201D0012300E000232D
:10399C0018461837BD4680BD00100240007000402C
:1039AC006000424280B584B000AF786039607B68BB
:1039BC00002B01D10123D0E06A4B1B6803F00703F5
:1039CC003A689A4210D9674B1B6823F00702654985
:1039DC003B6813430B60634B1B6803F007033A68A7
:1039EC009A4201D00123B8E07B681B6803F0020304
:1039FC00002B20D07B681B6803F00403002B05D040
:103A0C00594B5B68584A43F4E06353607B681B680E
:103A1C0003F00803002B05D0534B5B68524A43F468
:103A2C0060535360504B5B6823F0F0027B689B68DB
:103A3C004D4913434B607B681B6803F00103002B5B
:103A4C0040D07B685B68012B07D1474B1B6803F4A4
:103A5C000033002B15D101237FE07B685B68022BC0
:103A6C0007D1414B1B6803F00073002B09D10123D4
:103A7C0073E03D4B1B6803F00203002B01D10123C3
:103A8C006BE0394B5B6823F003027B685B6836495B
:103A9C0013434B60FEF78EFCF8600AE0FEF78AFCDD
:103AAC000246FB68D31A41F28832934201D90323B0
:103ABC0053E02D4B5B6803F00C027B685B689B004A
:103ACC009A42EBD1274B1B6803F007033A689A42E2
:103ADC0010D2244B1B6823F0070222493B68134386
:103AEC000B60204B1B6803F007033A689A4201D025
:103AFC00012332E07B681B6803F00403002B08D021
:103B0C00194B5B6823F4E0627B68DB68164913434E
:103B1C004B607B681B6803F00803002B09D0124B29
:103B2C005B6823F460527B681B69DB000E4913430E
:103B3C004B6000F021F802460B4B5B681B0903F04D
:103B4C000F030A49CB5C22FA03F3094A1360094BB1
:103B5C001B681846FEF7ECFB002318461037BD46D1
:103B6C0080BD00BF0020024000100240A45B000892
:103B7C00580000205C00002080B487B000AF002308
:103B8C00FB600023BB6000237B6100237B60002370
:103B9C003B611E4B5B68FB60FB6803F00C03042B62
:103BAC0002D0082B03D027E0194B3B6127E0FB68C0
:103BBC009B0C03F00F03174AD35C7B60FB6803F488
:103BCC008033002B10D0114B5B685B0C03F00103AE
:103BDC00114AD35CBB607B680D4A02FB03F2BB68E5
:103BEC00B2FBF3F37B6104E07B680C4A02FB03F34A
:103BFC007B617B693B6102E0054B3B6100BF3B692C
:103C0C0018461C37BD4680BC704700BF00100240F0
:103C1C0000127A00BC5B0008CC5B000800093D0078
:103C2C0080B400AF024B1B681846BD4680BC704781
:103C3C005800002080B500AFFFF7F2FF0246054B9D
:103C4C005B681B0A03F007030349CB5C22FA03F3FE
:103C5C00184680BD00100240B45B000880B500AF70
:103C6C00FFF7DEFF0246054B5B68DB0A03F0070338
:103C7C000349CB5C22FA03F3184680BD00100240C6
:103C8C00B45B000880B485B000AF78600A4B1B6849
:103C9C000A4AA2FB03235B0A7A6802FB03F3FB606C
:103CAC0000BFFB685A1EFA60002BF9D100BF00BFA1
:103CBC001437BD4680BC704758000020D34D6210AD
:103CCC0080B582B000AF78607B68002B01D10123F6
:103CDC0041E07B6893F83D30DBB2002B06D17B686A
:103CEC00002283F83C207868FEF77CF87B6802227F
:103CFC0083F83D207B681A687B68043319461046AC
:103D0C0000F05CFA7B68012283F846207B68012274
:103D1C0083F83E207B68012283F83F207B680122D8
:103D2C0083F840207B68012283F841207B680122C4
:103D3C0083F842207B68012283F843207B680122B0
:103D4C0083F844207B68012283F845207B6801229C
:103D5C0083F83D20002318460837BD4680BD00007F
:103D6C0080B485B000AF78607B6893F83D30DBB2EF
:103D7C00012B01D001233AE07B68022283F83D201D
:103D8C007B681B68DA687B681B6842F00102DA60AA
:103D9C007B681B68184A93420ED07B681B68B3F192
:103DAC00804F09D07B681B68144A934204D07B680F
:103DBC001B68134A934211D17B681B689B6803F004
:103DCC000703FB60FB68062B10D07B681B681A6826
:103DDC007B681B6842F001021A6007E07B681B6875
:103DEC001A687B681B6842F001021A6000231846AF
:103DFC001437BD4680BC7047002C014000040040C5
:103E0C000008004080B584B000AF78607B681B6808
:103E1C00DB68FB607B681B681B69BB60BB6803F0DD
:103E2C000203002B20D0FB6803F00203002B1BD0F5
:103E3C007B681B686FF002021A617B6801221A779B
:103E4C007B681B689B6903F00303002B03D0786825
:103E5C0000F098F905E0786800F08BF9786800F0CC
:103E6C009AF97B6800221A77BB6803F00403002BD5
:103E7C0020D0FB6803F00403002B1BD07B681B686D
:103E8C006FF004021A617B6802221A777B681B6848
:103E9C009B6903F44073002B03D0786800F072F92F
:103EAC0005E0786800F065F9786800F074F97B68D3
:103EBC0000221A77BB6803F00803002B20D0FB68A4
:103ECC0003F00803002B1BD07B681B686FF0080203
:103EDC001A617B6804221A777B681B68DB6903F024
:103EEC000303002B03D0786800F04CF905E07868E8
:103EFC0000F03FF9786800F04EF97B6800221A77E1
:103F0C00BB6803F01003002B20D0FB6803F01003F8
:103F1C00002B1BD07B681B686FF010021A617B684A
:103F2C0008221A777B681B68DB6903F44073002B4B
:103F3C0003D0786800F026F905E0786800F019F9EC
:103F4C00786800F028F97B6800221A77BB6803F0C8
:103F5C000103002B0CD0FB6803F00103002B07D0EE
:103F6C007B681B686FF001021A617868FDF70EFD23
:103F7C00BB6803F08003002B0CD0FB6803F08003BC
:103F8C00002B07D07B681B686FF080021A61786881
:103F9C0000F07FFABB6803F04003002B0CD0FB68E9
:103FAC0003F04003002B07D07B681B686FF04002C6
:103FBC001A61786800F0F8F8BB6803F02003002B56
:103FCC000CD0FB6803F02003002B07D07B681B6828
:103FDC006FF020021A61786800F052FA00BF1037B7
:103FEC00BD4680BD80B584B000AF786039600023D9
:103FFC00FB737B6893F83C30012B01D10223B4E0B6
:10400C007B68012283F83C207B68022283F83D20E8
:10401C007B681B689B68BB60BB6823F07703BB6045
:10402C00BB6823F47F43BB607B681B68BA689A60EB
:10403C003B681B68B3F5005F3ED0B3F5005F00F240
:10404C008780B3F5805F00F08680B3F5805F7FD802
:10405C00702B1AD0702B7BD8602B50D0602B77D85C
:10406C00502B3CD0502B73D8402B58D0402B6FD8B2
:10407C00302B64D0302B6BD8202B60D0202B67D802
:10408C00002B5CD0102B5AD062E07B6818683B6820
:10409C0099683B685A683B68DB6800F074F97B6888
:1040AC001B689B68BB60BB6843F07703BB607B6895
:1040BC001B68BA689A604FE07B6818683B6899681F
:1040CC003B685A683B68DB6800F05DF97B681B68ED
:1040DC009A687B681B6842F480429A603CE07B687B
:1040EC0018683B6859683B68DB681A4600F0D4F8DE
:1040FC007B681B685021184600F02BF92CE07B687C
:10410C0018683B6859683B68DB681A4600F0F2F89F
:10411C007B681B686021184600F01BF91CE07B686B
:10412C0018683B6859683B68DB681A4600F0B4F8BD
:10413C007B681B684021184600F00BF90CE07B688B
:10414C001A683B681B681946104600F002F903E038
:10415C000123FB7300E000BF7B68012283F83D2044
:10416C007B68002283F83C20FB7B18461037BD4649
:10417C0080BD80B483B000AF786000BF0C37BD4603
:10418C0080BC704780B483B000AF786000BF0C3740
:10419C00BD4680BC704780B483B000AF786000BF70
:1041AC000C37BD4680BC704780B483B000AF7860DC
:1041BC0000BF0C37BD4680BC7047000080B485B092
:1041CC0000AF786039607B681B68FB607B682F4AA6
:1041DC0093420BD07B68B3F1804F07D07B682C4A9D
:1041EC00934203D07B682B4A934208D1FB6823F09F
:1041FC007003FB603B685B68FA681343FB607B6889
:10420C00224A93420BD07B68B3F1804F07D07B6876
:10421C001F4A934203D07B681E4A934208D1FB6825
:10422C0023F44073FB603B68DB68FA681343FB6064
:10423C00FB6823F080023B685B691343FB607B687F
:10424C00FA681A603B689A687B68DA623B681A689D
:10425C007B689A627B680D4A934203D13B681A696A
:10426C007B681A637B6801225A617B681B6903F0C7
:10427C000103002B05D07B681B6923F001027B68CE
:10428C001A6100BF1437BD4680BC7047002C01403A
:10429C00000400400008004080B487B000AFF86014
:1042AC00B9607A60FB681B6A7B61FB681B6A23F050
:1042BC000102FB681A62FB689B693B613B6923F056
:1042CC00F0033B617B681B013A6913433B617B69DB
:1042DC0023F00A037B617A69BB6813437B61FB683B
:1042EC003A699A61FB687A691A6200BF1C37BD464D
:1042FC0080BC704780B487B000AFF860B9607A605A
:10430C00FB681B6A7B61FB681B6A23F01002FB686D
:10431C001A62FB689B693B613B6923F470433B6108
:10432C007B681B033A6913433B617B6923F0A00351
:10433C007B61BB681B017A6913437B61FB683A693B
:10434C009A61FB687A691A6200BF1C37BD4680BC53
:10435C00704780B485B000AF786039607B689B682B
:10436C00FB60FB6823F07003FB603A68FB68134347
:10437C0043F00703FB607B68FA689A6000BF143750
:10438C00BD4680BC704780B487B000AFF860B960A0
:10439C007A603B60FB689B687B617B6923F47F439D
:1043AC007B613B681A027B681A43BB6813437A69CA
:1043BC0013437B61FB687A699A6000BF1C37BD466A
:1043CC0080BC704780B485B000AF786039607B6882
:1043DC0093F83C30012B01D1022346E07B6801228B
:1043EC0083F83C207B68022283F83D207B681B68A5
:1043FC005B68FB607B681B689B68BB60FB6823F099
:10440C007003FB603B681B68FA681343FB607B68B6
:10441C001B68FA685A607B681B68164A93420ED078
:10442C007B681B68B3F1804F09D07B681B68124A0C
:10443C00934204D07B681B68104A93420CD1BB6832
:10444C0023F08003BB603B685B68BA681343BB60B6
:10445C007B681B68BA689A607B68012283F83D20F0
:10446C007B68002283F83C20002318461437BD4695
:10447C0080BC7047002C0140000400400008004044
:10448C0080B483B000AF786000BF0C37BD4680BCF1
:10449C00704780B483B000AF786000BF0C37BD4666
:1044AC0080BC704780B582B000AF78607B68002B11
:1044BC0001D1012342E07B6893F84130DBB2002B41
:1044CC0006D17B68002283F840207868FDF7AEFCAB
:1044DC007B68242283F841207B681B68DA687B6840
:1044EC001B6822F40052DA60786800F0B7FD7B6834
:1044FC001B681A697B681B6822F490421A617B68FE
:10450C001B685A697B681B6822F02A025A617B6817
:10451C001B68DA687B681B6842F40052DA607B68BF
:10452C0000225A647B68202283F841207B68202279
:10453C0083F842207B6800225A6300231846083710
:10454C00BD4680BD80B58AB002AFF860B9603B60F3
:10455C001346FB8000237B61FB6893F84130DBB290
:10456C00202B75D1BB68002B02D0FB88002B01D10E
:10457C0001236EE0FB6800225A64FB68212283F859
:10458C004120FDF717FF7861FB68FA889A84FB6875
:10459C00FA88DA84FB689B68B3F5805F08D1FB6806
:1045AC001B69002B04D10023FB61BB68BB6103E0DA
:1045BC00BB68FB610023BB612EE03B6800937B6909
:1045CC0000228021F86800F01CFB0346002B05D06C
:1045DC00FB68202283F8412003233AE0FB69002B7F
:1045EC000BD1BB691B881A46FB681B68C2F3080217
:1045FC005A60BB690233BB6107E0FB691A78FB6840
:10460C001B685A60FB690133FB61FB68DB8C9BB256
:10461C00013B9AB2FB68DA84FB68DB8C9BB2002B03
:10462C00CBD13B6800937B6900224021F86800F0F5
:10463C00E8FA0346002B05D0FB68202283F84120C2
:10464C00032306E0FB68202283F84120002300E0CE
:10465C00022318462037BD4680BD80B584B000AF1C
:10466C00F860B9601346FB80FB6893F84230DBB20C
:10467C00202B12D1BB68002B02D0FB88002B01D160
:10468C0001230BE0FB6800221A63FB881A46B96809
:10469C00F86800F00FFB034600E0022318461037C1
:1046AC00BD4680BD80B5BAB000AF78607B681B6832
:1046BC001B68C7F8E4307B681B68DB68C7F8E03020
:1046CC007B681B685B69C7F8DC300023C7F8D830FF
:1046DC000023C7F8D430D7F8E43003F00F03C7F841
:1046EC00D830D7F8D830002B0FD1D7F8E43003F0FE
:1046FC002003002B09D0D7F8E03003F02003002B67
:10470C0003D0786800F0ECFB5BE2D7F8D830002BD4
:10471C0000F0DE80D7F8DC3003F00103002B06D16B
:10472C00D7F8E03003F49073002B00F0D180D7F869
:10473C00E43003F00103002B0BD0D7F8E03003F486
:10474C008073002B05D07B685B6C43F001027B68A7
:10475C005A64D7F8E43003F00403002B0BD0D7F8DD
:10476C00DC3003F00103002B05D07B685B6C43F05D
:10477C0002027B685A64D7F8E43003F00203002B82
:10478C000BD0D7F8DC3003F00103002B05D07B688D
:10479C005B6C43F004027B685A64D7F8E43003F096
:1047AC000803002B11D0D7F8E03003F02003002BC6
:1047BC0005D1D7F8DC3003F00103002B05D07B6862
:1047CC005B6C43F008027B685A647B685B6C002B63
:1047DC0000F0F281D7F8E43003F02003002B08D06E
:1047EC00D7F8E03003F02003002B02D0786800F0FB
:1047FC0077FB7B681B685B6903F04003002B14BFDD
:10480C0001230023DBB2C7F8D4307B685B6C03F068
:10481C000803002B03D1D7F8D430002B4FD0786885
:10482C0000F081FA7B681B685B6903F04003002B86
:10483C0041D07B681B681433C7F89C30D7F89C3088
:10484C0053E8003FC7F89830D7F8983023F040036E
:10485C00C7F8D0307B681B681433D7F8D020C7F862
:10486C00A820C7F8A430D7F8A410D7F8A82041E89E
:10487C000023C7F8A030D7F8A030002BD9D17B6823
:10488C00DB6B002B13D07B68DB6B7E4A5A637B6837
:10489C00DB6B1846FDF704FF0346002B16D07B6834
:1048AC00DB6B5B6B7A68D26B104698470EE07868CE
:1048BC0000F093F90AE0786800F08FF906E0786868
:1048CC0000F08BF97B6800225A6475E100BF73E13C
:1048DC007B681B6B012B40F04F81D7F8E43003F061
:1048EC001003002B00F04881D7F8E03003F01003E0
:1048FC00002B00F041810023BB607B681B681B68A8
:10490C00BB607B681B685B68BB60BB687B681B68B3
:10491C005B6903F04003002B00F0B6807B68DB6B17
:10492C001B685B68A7F8BE30B7F8BE30002B00F0F0
:10493C0045817B689B8DB7F8BE209A4280F03E8102
:10494C007B68B7F8BE20DA857B68DB6B9B69202B14
:10495C0000F088807B681B680C33C7F88830D7F868
:10496C00883053E8003FC7F88430D7F8843023F4FC
:10497C008073C7F8B8307B681B680C33D7F8B82045
:10498C00C7F89420C7F89030D7F89010D7F8942037
:10499C0041E80023C7F88C30D7F88C30002BD9D1E4
:1049AC007B681B6814337B677B6F53E8003F3B6766
:1049BC003B6F23F00103C7F8B4307B681B681433DA
:1049CC00D7F8B420C7F88020FB67F96FD7F88020A0
:1049DC0041E80023BB67BB6F002BE1D17B681B68F0
:1049EC0014333B663B6E53E8003FFB65FB6D23F0D5
:1049FC004003C7F8B0307B681B681433D7F8B0207D
:104A0C00FA66BB66B96EFA6E41E800237B667B6E74
:104A1C00002BE3D17B68202283F842207B680022A4
:104A2C001A637B681B680C33FB64FB6C53E8003F18
:104A3C00BB64BB6C23F01003C7F8AC307B681B68FD
:104A4C000C33D7F8AC20BA657B65796DBA6D41E84B
:104A5C0000233B653B6D002BE3D17B68DB6B184679
:104A6C00FDF7E3FD7B6802225A637B689A8D7B68B5
:104A7C00DB8D9BB2D31A9BB21946786800F0B6F85E
:104A8C009CE000BFF74D00087B689A8D7B68DB8D3E
:104A9C009BB2D31AA7F8CE307B68DB8D9BB2002B70
:104AAC0000F08E80B7F8CE30002B00F089807B6848
:104ABC001B680C33BB63BB6B53E8003F7B637B6BA6
:104ACC0023F49073C7F8C8307B681B680C33D7F895
:104ADC00C8207A643B64396C7A6C41E80023FB6330
:104AEC00FB6B002BE3D17B681B6814337B627B6A06
:104AFC0053E8003F3B623B6A23F00103C7F8C43024
:104B0C007B681B681433D7F8C4203A63FB62F96ADC
:104B1C003A6B41E80023BB62BB6A002BE3D17B6894
:104B2C00202283F842207B6800221A637B681B6872
:104B3C000C333B613B6953E8003FFB60FB6823F09F
:104B4C001003C7F8C0307B681B680C33D7F8C02043
:104B5C00FA61BB61B969FA6941E800237B617B6941
:104B6C00002BE3D17B6802225A63B7F8CE3019468A
:104B7C00786800F03BF823E0D7F8E43003F08003CA
:104B8C00002B09D0D7F8E03003F08003002B03D0C2
:104B9C00786800F03EF914E0D7F8E43003F04003F5
:104BAC00002B0ED0D7F8E03003F04003002B08D0D8
:104BBC00786800F07DF904E000BF02E000BF00E07F
:104BCC0000BFE837BD4680BD80B483B000AF7860CD
:104BDC0000BF0C37BD4680BC704780B483B000AFBB
:104BEC00786000BF0C37BD4680BC704780B483B082
:104BFC0000AF78600B467B8000BF0C37BD4680BC95
:104C0C00704780B586B000AFF860B9603B60134662
:104C1C00FB713BE03B6AB3F1FF3F37D0FDF7CAFBBA
:104C2C0002463B68D31A3A6A9A4202D33B6A002B7B
:104C3C0001D103233AE0FB681B68DB6803F0040333
:104C4C00002B23D0BB68802B20D0BB68402B1DD001
:104C5C00FB681B681B6803F00803082B16D10023A4
:104C6C007B61FB681B681B687B61FB681B685B686E
:104C7C007B617B69F86800F056F8FB6808225A647F
:104C8C00FB68002283F8402001230FE0FB681B68BF
:104C9C001A68BB681340BA689A420CBF0123002300
:104CAC00DBB21A46FB799A42B4D000231846183767
:104CBC00BD4680BD80B485B000AFF860B9601346C6
:104CCC00FB80FB68BA689A62FB68FA889A85FB6875
:104CDC00FA88DA85FB6800225A64FB68222283F882
:104CEC004220FB681B69002B07D0FB681B68DA6845
:104CFC00FB681B6842F48072DA60FB681B685A69B7
:104D0C00FB681B6842F001025A61FB681B68DA6899
:104D1C00FB681B6842F02002DA6000231846143747
:104D2C00BD4680BC704780B495B000AF78607B689E
:104D3C001B680C337B637B6B53E8003F3B633B6B23
:104D4C0023F49073FB647B681B680C33FA6C3A6435
:104D5C00FB63F96B3A6C41E80023BB63BB6B002B24
:104D6C00E5D17B681B6814333B623B6A53E8003F18
:104D7C00FB61FB6923F00103BB647B681B68143384
:104D8C00BA6CFA62BB62B96AFA6A41E800237B62C8
:104D9C007B6A002BE5D17B681B6B012B19D17B68DF
:104DAC001B680C33FB60FB6853E8003FBB60BB68BF
:104DBC0023F010037B647B681B680C337A6CBA613C
:104DCC007B617969BA6941E800233B613B69002B3F
:104DDC00E5D17B68202283F842207B6800221A638D
:104DEC0000BF5437BD4680BC704780B584B000AF5F
:104DFC0078607B685B6AFB60FB680022DA85FB6885
:104E0C000022DA84F868FFF7E8FE00BF1037BD46D1
:104E1C0080BD80B485B000AF78607B6893F841307A
:104E2C00DBB2212B3ED17B689B68B3F5805F14D13C
:104E3C007B681B69002B10D17B681B6AFB60FB68CD
:104E4C001B881A467B681B68C2F308025A607B6891
:104E5C001B6A9A1C7B681A6208E07B681B6A591CE7
:104E6C007A6811621A787B681B685A607B68DB8CE5
:104E7C009BB2013B9BB27A681946D184002B0FD1AF
:104E8C007B681B68DA687B681B6822F08002DA603A
:104E9C007B681B68DA687B681B6842F04002DA604A
:104EAC00002300E0022318461437BD4680BC70472F
:104EBC0080B582B000AF78607B681B68DA687B686D
:104ECC001B6822F04002DA607B68202283F84120C4
:104EDC007868FFF779FE002318460837BD4680BD79
:104EEC0080B58CB000AF78607B6893F84230DBB251
:104EFC00222B40F0AE807B689B68B3F5805F17D1A6
:104F0C007B681B69002B13D10023FB627B689B6AB7
:104F1C00BB627B681B685B689BB2C3F308039AB2E5
:104F2C00BB6A1A807B689B6A9A1C7B689A6226E033
:104F3C007B689B6AFB620023BB627B689B68B3F552
:104F4C00805F07D07B689B68002B0AD17B681B694C
:104F5C00002B06D17B681B685B68DAB2FB6A1A709F
:104F6C0008E07B681B685B68DBB203F07F03DAB296
:104F7C00FB6A1A707B689B6A5A1C7B689A627B6816
:104F8C00DB8D9BB2013B9BB27A681946D185002B15
:104F9C005DD17B681B68DA687B681B6822F0200295
:104FAC00DA607B681B68DA687B681B6822F48072A5
:104FBC00DA607B681B685A697B681B6822F0010207
:104FCC005A617B68202283F842207B6800225A6356
:104FDC007B681B6B012B35D17B6800221A637B68C5
:104FEC001B680C337B617B6953E8003F3B613B6979
:104FFC0023F010037B627B681B680C337A6A3A627D
:10500C00FB61F9693A6A41E80023BB61BB69002B7B
:10501C00E5D17B681B681B6803F01003102B0AD1C9
:10502C000023FB607B681B681B68FB607B681B684C
:10503C005B68FB60FB687B689B8D19467868FFF7A3
:10504C00D5FD02E07868FCF757FA002302E0002354
:10505C0000E0022318463037BD4680BD80B584B0D1
:10506C0000AF78607B681B681B6923F440517B6838
:10507C00DA687B681B680A431A617B689A687B68EC
:10508C001B691A437B685B691343BB607B681B68B5
:10509C00DB6823F4B05323F00C037A681268B96808
:1050AC000B43D3607B681B685B6923F440717B689E
:1050BC009A697B681B680A435A617B681B682C4A97
:1050CC00934203D1FEF7CAFDF86002E0FEF7B2FD91
:1050DC00F860FA6813469B0013449A001A447B68E4
:1050EC005B689B00B2FBF3F3224AA2FB03235B0930
:1050FC001901FA6813469B0013449A001A447B6802
:10510C005B689B00B2FBF3F21A4BA3FB02035B0937
:10511C00642000FB03F3D31A1B013233154AA2FBA4
:10512C0003235B0903F0F0031944FA6813469B0050
:10513C0013449A001A447B685B689B00B2FBF3F241
:10514C000C4BA3FB02035B09642000FB03F3D31A93
:10515C001B013233074AA2FB03235B0903F00F0246
:10516C007B681B680A449A6000BF1037BD4680BD3F
:10517C00003801401F85EB51014B1868704700BF88
:10518C006400002070B500260C4D0D4C641BA4105F
:10519C00A64209D100F05CFC00260A4D0A4C641BA7
:1051AC00A410A64205D170BD55F8043B98470136B2
:1051BC00EEE755F8043B98470136F2E7045C00082B
:1051CC00045C0008045C0008085C00080346024408
:1051DC00934200D1704703F8011BF9E738B5054637
:1051EC00002943D051F8043C0C1F002BB8BFE41825
:1051FC0000F0CAF81E4A1368104633B96360146095
:10520C002846BDE8384000F0C5B8A3420AD9216849
:10521C006218934201BF1A685B685218226063607F
:10522C000460EDE71A465B680BB1A342FAD911682A
:10523C005018A0420BD120680144501883421160D1
:10524C00DED118685B68014411605360D8E702D95D
:10525C000C232B60D4E7206821188B4201BF1968FE
:10526C005B680918216063605460C9E738BD00BFF2
:10527C0010010020F8B5CD1C25F0030508350C2DC8
:10528C0038BF0C25002D064601DBA94203D90C239F
:10529C0033600020F8BD00F077F821490A68144605
:1052AC009CB9204F3B6823B92146304600F03CF8AE
:1052BC0038602946304600F037F8431C23D10C23C4
:1052CC003046336000F066F8E3E723685B1B17D4C5
:1052DC000B2B03D923601C44256004E06368A242B5
:1052EC000CBF0B605360304600F054F804F10B0017
:1052FC00231D20F00700C21ACCD01B1AA350C9E7FB
:10530C0022466468CCE7C41C24F00304A042E3D01A
:10531C00211A304600F008F80130DDD1CFE700BF8C
:10532C00100100201401002038B50023054D04465F
:10533C0008462B60FCF704FE431C02D12B6803B11A
:10534C00236038BD6C0300200EB46FF0004100B533
:10535C009CB01DAB02900690079104910848094936
:10536C0053F8042B0591006802A9019300F074F81E
:10537C000022029B1A701CB05DF804EB03B070475E
:10538C00640000200802FFFF014800F0FBBA00BFD8
:10539C0074030020014800F0F6BA00BF740300202B
:1053AC002DE9F0478E6882469E420C4690461F4679
:1053BC0038D88A8912F4906F32D025680969013384
:1053CC00A5EB010965694B4405EB450505EBD57566
:1053DC006D109D4238BF1D46530531D52946FFF748
:1053EC0049FF064650B90C234FF0FF30CAF8003085
:1053FC00A38943F04003A381BDE8F0874A462169A5
:10540C0000F0D0FAA38923F4906343F08003A381C6
:10541C0026614E4426603E466561A5EB0905A560F4
:10542C00BE4200D93E4632464146206800F0C8FADA
:10543C00A36822689B1B32440020A3602260DBE738
:10544C002A4600F0D7FA06460028E1D150462169D9
:10545C00FFF7C4FEC7E700002DE9F04F98468B8993
:10546C0007461B060D4614469DB00ED50B6963B955
:10547C004021FFF7FFFE2860286120B90C233B6018
:10548C004FF0FF30D1E040236B61002309932023C0
:10549C008DF8293030234FF00109CDF80C80DFF85E
:1054AC00A4818DF82A3023469A4613F8012B0AB1B1
:1054BC00252AF9D1BAEB040B0BD05B4622462946C0
:1054CC003846FFF76DFF013000F0AA80099A5A4464
:1054DC0009929AF80030002B00F0A28000234FF0C4
:1054EC00FF32CDE905230AF1010A049307938DF8E5
:1054FC0053301A935446052214F8011B514800F0FE
:10550C0043FA049AD8B9D00644BF20238DF85330FF
:10551C00110744BF2B238DF853309AF800302A2BF7
:10552C0015D0544600204FF00A0C079A214611F86A
:10553C00013B303B092B4ED9B0B1079214E0A0EBE4
:10554C00080309FA03F31343A2460493D2E7039B1F
:10555C00191D1B680391002BBBBF5B4242F002027A
:10556C0007930793B8BF049223782E2B0CD1637842
:10557C002A2B35D1039B02341A1D1B680392002B76
:10558C00B8BF4FF0FF330593DFF8C8A00322504695
:10559C00217800F0F9F940B14023A0EB0A0003FA9E
:1055AC0000F0049B01340343049314F8011B0622FE
:1055BC0025488DF8281000F0E7F9002838D0234B47
:1055CC001BBB039B073323F0070308330393099B8F
:1055DC003344099367E70C4601200CFB0232A5E724
:1055EC0000234FF00A0C194601340593204610F89D
:1055FC00012B303A092A03D9002BC5D00591C3E7FA
:10560C00044601230CFB0121F0E703AB00932A466F
:10561C0038460F4B04A9AFF30080421C0646D6D186
:10562C00AB895B063FF52CAF09981DB0BDE8F08F38
:10563C0003AB00932A463846054B04A900F07CF8CE
:10564C00EBE700BFCE5B0008D85B00080000000051
:10565C00AD530008D45B00082DE9F0471646994677
:10566C008A680B6907469342B8BF1346336091F8BA
:10567C0043200C46DDF820800AB1013333602368E7
:10568C00990642BF336802333360256815F006056E
:10569C0006D104F1190AE36832689B1AAB4228DC84
:1056AC0094F84320131E226818BF012392062DD4B0
:1056BC004946384604F14302C047013020D02368E4
:1056CC00E56803F00603042B18BF002532684FF081
:1056DC000006A36808BFAD1A226908BF25EAE57564
:1056EC009342C4BF9B1AED181A34B5421AD100204C
:1056FC0008E00123524649463846C047013003D1E1
:10570C004FF0FF30BDE8F0870135C4E73020E118D9
:10571C0081F843005A1C94F845102244023382F855
:10572C004310C5E70123224649463846C04701309D
:10573C00E6D00136D9E700002DE9FF470C46277E5D
:10574C009146782F80469A460C9904F1430207D86B
:10575C00622F0AD8002F00F0D980582F00F0A480B7
:10576C0004F1420684F842703AE0A7F16303152B6A
:10577C00F6D801A050F823F0DD570008F1570008C7
:10578C006D5700086D5700086D5700086D570008DD
:10579C00F15700086D5700086D5700086D57000849
:1057AC006D570008FF58000821580008E158000800
:1057BC006D5700086D570008215900086D570008F7
:1057CC00215800086D5700086D570008E95800086B
:1057DC000B6804F142061A1D1B680A6084F84230FB
:1057EC000123A4E0256808682E0600F104030AD5FD
:1057FC0005680B60002D03DA2D236D4284F84330CD
:10580C000A235E4819E015F0400F05680B6018BFBD
:10581C002DB2EFE70B682568181D0860280601D526
:10582C001D6802E06906FBD51D886F2F0CBF08238D
:10583C000A235248002184F843106668002EA8BF42
:10584C002168A660A4BF21F0040121600DB9002ECF
:10585C004DD01646B5FBF3F103FB1157C75D06F8A7
:10586C00017D2F46BB420D46F4D9082B0BD1236882
:10587C00DF0708D5236961689942DEBF302306F83B
:10588C00013C06F1FF36921B22614B4621464046F5
:10589C00CDF800A003AAFFF7DFFE01304CD14FF08A
:1058AC00FF3004B0BDE8F087344884F845700E68CA
:1058BC00236856F8045B1F060E6014D5D90744BF45
:1058CC0043F0200323601DB9236823F020032360D9
:1058DC001023AFE7236843F0200323607823284884
:1058EC0084F84530E3E75E0648BFADB2E6E71646FE
:1058FC00BBE70B6826681D1D60690D6035061B68CB
:10590C0001D5186002E07106FBD5188000231646FD
:10591C002361BAE70B681A1D0A601E680021304625
:10592C00626800F031F808B1801B60606368236125
:10593C00002384F84330A8E73246494640462369A1
:10594C00D0470130ABD023689B0713D4E068039B8E
:10595C009842B8BF1846A4E7012332464946404650
:10596C00D04701309BD00135E36803995B1AAB42F9
:10597C00F2DCEBE7002504F11906F5E7DF5B000824
:10598C00F05B000870477047034610B5C9B202447B
:10599C009342184601D1002003E0047801338C4275
:1059AC00F6D110BD0A44914200F1FF3300D170478B
:1059BC0010B511F8014B914203F8014FF9D110BD0C
:1059CC00884210B501EB020402D98442234607D861
:1059DC00431EA14208D011F8012B03F8012FF8E760
:1059EC00014602448A4200D110BD13F8014D02F861
:1059FC00014DF7E7F8B5074614460E4621B9114696
:105A0C00BDE8F840FFF736BC22B9FFF7E7FB2546A7
:105A1C002846F8BD00F014F8A0420FD221463846B3
:105A2C00FFF728FC05460028F2D031462246FFF746
:105A3C00B9FF31463846FFF7D1FBE9E73546E7E7D2
:105A4C0051F8043C181F002BBCBF0B58C0187047F2
:105A5C00F8B500BFF8BC08BC9E467047F8B500BF4F
:085A6C00F8BC08BC9E4670471F
:105A740054726166666963583A20302564000000F8
:105A840054726166666963583A2025640000000018
:105A940054726166666963593A20302564000000D7
:105AA40054726166666963593A20256400000000F7
:105AB4004D616E75616C204D6F646500526564586C
:105AC400202D20477265656E5900000052656458A8
